{
  "_format": "hh-sol-artifact-1",
  "contractName": "MyEpicNFT",
  "sourceName": "contracts/MyEpicNFT.sol",
  "abi": [
    {
      "inputs": [],
      "stateMutability": "nonpayable",
      "type": "constructor"
    },
    {
      "anonymous": false,
      "inputs": [
        {
          "indexed": true,
          "internalType": "address",
          "name": "owner",
          "type": "address"
        },
        {
          "indexed": true,
          "internalType": "address",
          "name": "approved",
          "type": "address"
        },
        {
          "indexed": true,
          "internalType": "uint256",
          "name": "tokenId",
          "type": "uint256"
        }
      ],
      "name": "Approval",
      "type": "event"
    },
    {
      "anonymous": false,
      "inputs": [
        {
          "indexed": true,
          "internalType": "address",
          "name": "owner",
          "type": "address"
        },
        {
          "indexed": true,
          "internalType": "address",
          "name": "operator",
          "type": "address"
        },
        {
          "indexed": false,
          "internalType": "bool",
          "name": "approved",
          "type": "bool"
        }
      ],
      "name": "ApprovalForAll",
      "type": "event"
    },
    {
      "anonymous": false,
      "inputs": [
        {
          "indexed": false,
          "internalType": "address",
          "name": "sender",
          "type": "address"
        },
        {
          "indexed": false,
          "internalType": "uint256",
          "name": "tokenId",
          "type": "uint256"
        }
      ],
      "name": "NewEpicNFTMinted",
      "type": "event"
    },
    {
      "anonymous": false,
      "inputs": [
        {
          "indexed": true,
          "internalType": "address",
          "name": "from",
          "type": "address"
        },
        {
          "indexed": true,
          "internalType": "address",
          "name": "to",
          "type": "address"
        },
        {
          "indexed": true,
          "internalType": "uint256",
          "name": "tokenId",
          "type": "uint256"
        }
      ],
      "name": "Transfer",
      "type": "event"
    },
    {
      "inputs": [
        {
          "internalType": "address",
          "name": "to",
          "type": "address"
        },
        {
          "internalType": "uint256",
          "name": "tokenId",
          "type": "uint256"
        }
      ],
      "name": "approve",
      "outputs": [],
      "stateMutability": "nonpayable",
      "type": "function"
    },
    {
      "inputs": [
        {
          "internalType": "address",
          "name": "owner",
          "type": "address"
        }
      ],
      "name": "balanceOf",
      "outputs": [
        {
          "internalType": "uint256",
          "name": "",
          "type": "uint256"
        }
      ],
      "stateMutability": "view",
      "type": "function"
    },
    {
      "inputs": [
        {
          "internalType": "uint256",
          "name": "tokenId",
          "type": "uint256"
        }
      ],
      "name": "getApproved",
      "outputs": [
        {
          "internalType": "address",
          "name": "",
          "type": "address"
        }
      ],
      "stateMutability": "view",
      "type": "function"
    },
    {
      "inputs": [],
      "name": "getTotalNFTsMintedSoFar",
      "outputs": [
        {
          "internalType": "uint256",
          "name": "",
          "type": "uint256"
        }
      ],
      "stateMutability": "view",
      "type": "function"
    },
    {
      "inputs": [
        {
          "internalType": "address",
          "name": "owner",
          "type": "address"
        },
        {
          "internalType": "address",
          "name": "operator",
          "type": "address"
        }
      ],
      "name": "isApprovedForAll",
      "outputs": [
        {
          "internalType": "bool",
          "name": "",
          "type": "bool"
        }
      ],
      "stateMutability": "view",
      "type": "function"
    },
    {
      "inputs": [],
      "name": "makeAnEpicNFT",
      "outputs": [],
      "stateMutability": "nonpayable",
      "type": "function"
    },
    {
      "inputs": [],
      "name": "name",
      "outputs": [
        {
          "internalType": "string",
          "name": "",
          "type": "string"
        }
      ],
      "stateMutability": "view",
      "type": "function"
    },
    {
      "inputs": [
        {
          "internalType": "uint256",
          "name": "tokenId",
          "type": "uint256"
        }
      ],
      "name": "ownerOf",
      "outputs": [
        {
          "internalType": "address",
          "name": "",
          "type": "address"
        }
      ],
      "stateMutability": "view",
      "type": "function"
    },
    {
      "inputs": [
        {
          "internalType": "uint256",
          "name": "tokenId",
          "type": "uint256"
        }
      ],
      "name": "pickRandomFirstWord",
      "outputs": [
        {
          "internalType": "string",
          "name": "",
          "type": "string"
        }
      ],
      "stateMutability": "view",
      "type": "function"
    },
    {
      "inputs": [
        {
          "internalType": "uint256",
          "name": "tokenId",
          "type": "uint256"
        }
      ],
      "name": "pickRandomSecondWord",
      "outputs": [
        {
          "internalType": "string",
          "name": "",
          "type": "string"
        }
      ],
      "stateMutability": "view",
      "type": "function"
    },
    {
      "inputs": [
        {
          "internalType": "uint256",
          "name": "tokenId",
          "type": "uint256"
        }
      ],
      "name": "pickRandomThirdWord",
      "outputs": [
        {
          "internalType": "string",
          "name": "",
          "type": "string"
        }
      ],
      "stateMutability": "view",
      "type": "function"
    },
    {
      "inputs": [
        {
          "internalType": "address",
          "name": "from",
          "type": "address"
        },
        {
          "internalType": "address",
          "name": "to",
          "type": "address"
        },
        {
          "internalType": "uint256",
          "name": "tokenId",
          "type": "uint256"
        }
      ],
      "name": "safeTransferFrom",
      "outputs": [],
      "stateMutability": "nonpayable",
      "type": "function"
    },
    {
      "inputs": [
        {
          "internalType": "address",
          "name": "from",
          "type": "address"
        },
        {
          "internalType": "address",
          "name": "to",
          "type": "address"
        },
        {
          "internalType": "uint256",
          "name": "tokenId",
          "type": "uint256"
        },
        {
          "internalType": "bytes",
          "name": "data",
          "type": "bytes"
        }
      ],
      "name": "safeTransferFrom",
      "outputs": [],
      "stateMutability": "nonpayable",
      "type": "function"
    },
    {
      "inputs": [
        {
          "internalType": "address",
          "name": "operator",
          "type": "address"
        },
        {
          "internalType": "bool",
          "name": "approved",
          "type": "bool"
        }
      ],
      "name": "setApprovalForAll",
      "outputs": [],
      "stateMutability": "nonpayable",
      "type": "function"
    },
    {
      "inputs": [
        {
          "internalType": "bytes4",
          "name": "interfaceId",
          "type": "bytes4"
        }
      ],
      "name": "supportsInterface",
      "outputs": [
        {
          "internalType": "bool",
          "name": "",
          "type": "bool"
        }
      ],
      "stateMutability": "view",
      "type": "function"
    },
    {
      "inputs": [],
      "name": "symbol",
      "outputs": [
        {
          "internalType": "string",
          "name": "",
          "type": "string"
        }
      ],
      "stateMutability": "view",
      "type": "function"
    },
    {
      "inputs": [
        {
          "internalType": "uint256",
          "name": "tokenId",
          "type": "uint256"
        }
      ],
      "name": "tokenURI",
      "outputs": [
        {
          "internalType": "string",
          "name": "",
          "type": "string"
        }
      ],
      "stateMutability": "view",
      "type": "function"
    },
    {
      "inputs": [
        {
          "internalType": "address",
          "name": "from",
          "type": "address"
        },
        {
          "internalType": "address",
          "name": "to",
          "type": "address"
        },
        {
          "internalType": "uint256",
          "name": "tokenId",
          "type": "uint256"
        }
      ],
      "name": "transferFrom",
      "outputs": [],
      "stateMutability": "nonpayable",
      "type": "function"
    }
  ],
  "bytecode": "0x608060405260405180610160016040528061012f815260200162004b8761012f91396008908162000031919062001152565b506040518061022001604052806040518060400160405280600781526020017f4d697261636c650000000000000000000000000000000000000000000000000081525081526020016040518060400160405280600881526020017f506f77657266756c00000000000000000000000000000000000000000000000081525081526020016040518060400160405280600981526020017f4e756d6265726f6e65000000000000000000000000000000000000000000000081525081526020016040518060400160405280600581526020017f4372617a7900000000000000000000000000000000000000000000000000000081525081526020016040518060400160405280600481526020017f57696c640000000000000000000000000000000000000000000000000000000081525081526020016040518060400160405280600681526020017f53706f6f6b79000000000000000000000000000000000000000000000000000081525081526020016040518060400160405280600681526020017f507265747479000000000000000000000000000000000000000000000000000081525081526020016040518060400160405280600681526020017f4a6f7966756c000000000000000000000000000000000000000000000000000081525081526020016040518060400160405280600881526020017f466162756c6f757300000000000000000000000000000000000000000000000081525081526020016040518060400160405280600981526020017f456e65726765746963000000000000000000000000000000000000000000000081525081526020016040518060400160405280600681526020017f47656e697573000000000000000000000000000000000000000000000000000081525081526020016040518060400160405280600781526020017f4d61676963616c0000000000000000000000000000000000000000000000000081525081526020016040518060400160405280600581526020017f53696c6c7900000000000000000000000000000000000000000000000000000081525081526020016040518060400160405280600a81526020017f417474726163746976650000000000000000000000000000000000000000000081525081526020016040518060400160405280600981526020017f5374726f6e67657374000000000000000000000000000000000000000000000081525081526020016040518060400160405280600981526020017f5265616c6973746963000000000000000000000000000000000000000000000081525081526020016040518060400160405280600981526020017f537570657272696368000000000000000000000000000000000000000000000081525081525060099060116200043992919062000deb565b506040518061022001604052806040518060400160405280600881526020017f47656e6b696b6b6f00000000000000000000000000000000000000000000000081525081526020016040518060400160405280600681526020017f4b6177616969000000000000000000000000000000000000000000000000000081525081526020016040518060400160405280600b81526020017f467573686967696368616e00000000000000000000000000000000000000000081525081526020016040518060400160405280600681526020017f4e796f746569000000000000000000000000000000000000000000000000000081525081526020016040518060400160405280600681526020017f526170706572000000000000000000000000000000000000000000000000000081525081526020016040518060400160405280600681526020017f526f636b6572000000000000000000000000000000000000000000000000000081525081526020016040518060400160405280600b81526020017f456e7465727461696e657200000000000000000000000000000000000000000081525081526020016040518060400160405280600681526020017f4865616c6572000000000000000000000000000000000000000000000000000081525081526020016040518060400160405280600381526020017f416365000000000000000000000000000000000000000000000000000000000081525081526020016040518060400160405280600481526020017f4865726f0000000000000000000000000000000000000000000000000000000081525081526020016040518060400160405280600781526020017f4865726f696e650000000000000000000000000000000000000000000000000081525081526020016040518060400160405280600581526020017f436f72707300000000000000000000000000000000000000000000000000000081525081526020016040518060400160405280600781526020017f4174686c6574650000000000000000000000000000000000000000000000000081525081526020016040518060400160405280600581526020017f576974636800000000000000000000000000000000000000000000000000000081525081526020016040518060400160405280600381526020017f426f79000000000000000000000000000000000000000000000000000000000081525081526020016040518060400160405280600481526020017f4769726c0000000000000000000000000000000000000000000000000000000081525081526020016040518060400160405280600681526020017f4865726d69740000000000000000000000000000000000000000000000000000815250815250600a9060116200084192919062000deb565b506040518061022001604052806040518060400160405280600581526020017f4d61697a6500000000000000000000000000000000000000000000000000000081525081526020016040518060400160405280600981526020017f4172726f77726f6f74000000000000000000000000000000000000000000000081525081526020016040518060400160405280600581526020017f4f6e696f6e00000000000000000000000000000000000000000000000000000081525081526020016040518060400160405280600781526020017f5370696e6163680000000000000000000000000000000000000000000000000081525081526020016040518060400160405280600681526020017f546f6d61746f000000000000000000000000000000000000000000000000000081525081526020016040518060400160405280600781526020017f436162626167650000000000000000000000000000000000000000000000000081525081526020016040518060400160405280600481526020017f4b616c650000000000000000000000000000000000000000000000000000000081525081526020016040518060400160405280600681526020017f436f66666565000000000000000000000000000000000000000000000000000081525081526020016040518060400160405280600381526020017f546561000000000000000000000000000000000000000000000000000000000081525081526020016040518060400160405280600681526020017f436172726f74000000000000000000000000000000000000000000000000000081525081526020016040518060400160405280600681526020017f506f7461746f000000000000000000000000000000000000000000000000000081525081526020016040518060400160405280600581526020017f44616e696100000000000000000000000000000000000000000000000000000081525081526020016040518060400160405280600681526020017f4761726c6963000000000000000000000000000000000000000000000000000081525081526020016040518060400160405280600681526020017f47696e676572000000000000000000000000000000000000000000000000000081525081526020016040518060400160405280600881526020017f5a75636368696e6900000000000000000000000000000000000000000000000081525081526020016040518060400160405280600881526020017f456767706c616e7400000000000000000000000000000000000000000000000081525081526020016040518060400160405280600781526020017f50756d706b696e00000000000000000000000000000000000000000000000000815250815250600b90601162000c4992919062000deb565b5034801562000c5757600080fd5b506040518060400160405280601481526020017f4b6f6e6d6172754d61676963566567695f4e46540000000000000000000000008152506040518060400160405280600381526020017f4b4d560000000000000000000000000000000000000000000000000000000000815250816000908162000cd5919062001152565b50806001908162000ce7919062001152565b50505062000d196040518060600160405280602d815260200162004cb6602d913962000d1f60201b620010501760201c565b620012ec565b62000dbf8160405160240162000d369190620012c8565b6040516020818303038152906040527f41304fac000000000000000000000000000000000000000000000000000000007bffffffffffffffffffffffffffffffffffffffffffffffffffffffff19166020820180517bffffffffffffffffffffffffffffffffffffffffffffffffffffffff838183161783525050505062000dc260201b60201c565b50565b60008151905060006a636f6e736f6c652e6c6f679050602083016000808483855afa5050505050565b82805482825590600052602060002090810192821562000e38579160200282015b8281111562000e3757825182908162000e26919062001152565b509160200191906001019062000e0c565b5b50905062000e47919062000e4b565b5090565b5b8082111562000e6f576000818162000e65919062000e73565b5060010162000e4c565b5090565b50805462000e819062000f41565b6000825580601f1062000e95575062000eb6565b601f01602090049060005260206000209081019062000eb5919062000eb9565b5b50565b5b8082111562000ed457600081600090555060010162000eba565b5090565b600081519050919050565b7f4e487b7100000000000000000000000000000000000000000000000000000000600052604160045260246000fd5b7f4e487b7100000000000000000000000000000000000000000000000000000000600052602260045260246000fd5b6000600282049050600182168062000f5a57607f821691505b60208210810362000f705762000f6f62000f12565b5b50919050565b60008190508160005260206000209050919050565b60006020601f8301049050919050565b600082821b905092915050565b60006008830262000fda7fffffffffffffffffffffffffffffffffffffffffffffffffffffffffffffffff8262000f9b565b62000fe6868362000f9b565b95508019841693508086168417925050509392505050565b6000819050919050565b6000819050919050565b6000620010336200102d620010278462000ffe565b62001008565b62000ffe565b9050919050565b6000819050919050565b6200104f8362001012565b620010676200105e826200103a565b84845462000fa8565b825550505050565b600090565b6200107e6200106f565b6200108b81848462001044565b505050565b5b81811015620010b357620010a760008262001074565b60018101905062001091565b5050565b601f8211156200110257620010cc8162000f76565b620010d78462000f8b565b81016020851015620010e7578190505b620010ff620010f68562000f8b565b83018262001090565b50505b505050565b600082821c905092915050565b6000620011276000198460080262001107565b1980831691505092915050565b600062001142838362001114565b9150826002028217905092915050565b6200115d8262000ed8565b67ffffffffffffffff81111562001179576200117862000ee3565b5b62001185825462000f41565b62001192828285620010b7565b600060209050601f831160018114620011ca5760008415620011b5578287015190505b620011c1858262001134565b86555062001231565b601f198416620011da8662000f76565b60005b828110156200120457848901518255600182019150602085019450602081019050620011dd565b8683101562001224578489015162001220601f89168262001114565b8355505b6001600288020188555050505b505050505050565b600082825260208201905092915050565b60005b838110156200126a5780820151818401526020810190506200124d565b60008484015250505050565b6000601f19601f8301169050919050565b6000620012948262000ed8565b620012a0818562001239565b9350620012b28185602086016200124a565b620012bd8162001276565b840191505092915050565b60006020820190508181036000830152620012e4818462001287565b905092915050565b61388b80620012fc6000396000f3fe608060405234801561001057600080fd5b50600436106101165760003560e01c806370a08231116100a2578063b88d4fde11610071578063b88d4fde14610305578063c575757a14610321578063c87b56dd14610351578063de9d132f14610381578063e985e9c51461038b57610116565b806370a082311461026b57806395d89b411461029b578063a22cb465146102b9578063b187301f146102d557610116565b8063095ea7b3116100e9578063095ea7b3146101b757806323b872dd146101d35780632de38d68146101ef57806342842e0e1461021f5780636352211e1461023b57610116565b806301ffc9a71461011b578063060475901461014b57806306fdde0314610169578063081812fc14610187575b600080fd5b610135600480360381019061013091906120ce565b6103bb565b6040516101429190612116565b60405180910390f35b61015361049d565b604051610160919061214a565b60405180910390f35b6101716104ae565b60405161017e91906121f5565b60405180910390f35b6101a1600480360381019061019c9190612243565b610540565b6040516101ae91906122b1565b60405180910390f35b6101d160048036038101906101cc91906122f8565b610586565b005b6101ed60048036038101906101e89190612338565b61069d565b005b61020960048036038101906102049190612243565b6106fd565b60405161021691906121f5565b60405180910390f35b61023960048036038101906102349190612338565b6107f5565b005b61025560048036038101906102509190612243565b610815565b60405161026291906122b1565b60405180910390f35b6102856004803603810190610280919061238b565b6108c6565b604051610292919061214a565b60405180910390f35b6102a361097d565b6040516102b091906121f5565b60405180910390f35b6102d360048036038101906102ce91906123e4565b610a0f565b005b6102ef60048036038101906102ea9190612243565b610a25565b6040516102fc91906121f5565b60405180910390f35b61031f600480360381019061031a9190612559565b610b1d565b005b61033b60048036038101906103369190612243565b610b7f565b60405161034891906121f5565b60405180910390f35b61036b60048036038101906103669190612243565b610c77565b60405161037891906121f5565b60405180910390f35b610389610d89565b005b6103a560048036038101906103a091906125dc565b610fbc565b6040516103b29190612116565b60405180910390f35b60007f80ac58cd000000000000000000000000000000000000000000000000000000007bffffffffffffffffffffffffffffffffffffffffffffffffffffffff1916827bffffffffffffffffffffffffffffffffffffffffffffffffffffffff1916148061048657507f5b5e139f000000000000000000000000000000000000000000000000000000007bffffffffffffffffffffffffffffffffffffffffffffffffffffffff1916827bffffffffffffffffffffffffffffffffffffffffffffffffffffffff1916145b806104965750610495826110e9565b5b9050919050565b60006104a96007611153565b905090565b6060600080546104bd9061264b565b80601f01602080910402602001604051908101604052809291908181526020018280546104e99061264b565b80156105365780601f1061050b57610100808354040283529160200191610536565b820191906000526020600020905b81548152906001019060200180831161051957829003601f168201915b5050505050905090565b600061054b82611161565b6004600083815260200190815260200160002060009054906101000a900473ffffffffffffffffffffffffffffffffffffffff169050919050565b600061059182610815565b90508073ffffffffffffffffffffffffffffffffffffffff168373ffffffffffffffffffffffffffffffffffffffff1603610601576040517f08c379a00000000000000000000000000000000000000000000000000000000081526004016105f8906126ee565b60405180910390fd5b8073ffffffffffffffffffffffffffffffffffffffff166106206111ac565b73ffffffffffffffffffffffffffffffffffffffff16148061064f575061064e816106496111ac565b610fbc565b5b61068e576040517f08c379a000000000000000000000000000000000000000000000000000000000815260040161068590612780565b60405180910390fd5b61069883836111b4565b505050565b6106ae6106a86111ac565b8261126d565b6106ed576040517f08c379a00000000000000000000000000000000000000000000000000000000081526004016106e490612812565b60405180910390fd5b6106f8838383611302565b505050565b6060600061073161070d84611568565b60405160200161071d91906128ba565b6040516020818303038152906040526116c8565b905060098054905081610744919061290b565b90506009818154811061075a5761075961293c565b5b90600052602060002001805461076f9061264b565b80601f016020809104026020016040519081016040528092919081815260200182805461079b9061264b565b80156107e85780601f106107bd576101008083540402835291602001916107e8565b820191906000526020600020905b8154815290600101906020018083116107cb57829003601f168201915b5050505050915050919050565b61081083838360405180602001604052806000815250610b1d565b505050565b6000806002600084815260200190815260200160002060009054906101000a900473ffffffffffffffffffffffffffffffffffffffff169050600073ffffffffffffffffffffffffffffffffffffffff168173ffffffffffffffffffffffffffffffffffffffff16036108bd576040517f08c379a00000000000000000000000000000000000000000000000000000000081526004016108b4906129b7565b60405180910390fd5b80915050919050565b60008073ffffffffffffffffffffffffffffffffffffffff168273ffffffffffffffffffffffffffffffffffffffff1603610936576040517f08c379a000000000000000000000000000000000000000000000000000000000815260040161092d90612a49565b60405180910390fd5b600360008373ffffffffffffffffffffffffffffffffffffffff1673ffffffffffffffffffffffffffffffffffffffff168152602001908152602001600020549050919050565b60606001805461098c9061264b565b80601f01602080910402602001604051908101604052809291908181526020018280546109b89061264b565b8015610a055780601f106109da57610100808354040283529160200191610a05565b820191906000526020600020905b8154815290600101906020018083116109e857829003601f168201915b5050505050905090565b610a21610a1a6111ac565b83836116fb565b5050565b60606000610a59610a3584611568565b604051602001610a459190612ab5565b6040516020818303038152906040526116c8565b9050600a8054905081610a6c919061290b565b9050600a8181548110610a8257610a8161293c565b5b906000526020600020018054610a979061264b565b80601f0160208091040260200160405190810160405280929190818152602001828054610ac39061264b565b8015610b105780601f10610ae557610100808354040283529160200191610b10565b820191906000526020600020905b815481529060010190602001808311610af357829003601f168201915b5050505050915050919050565b610b2e610b286111ac565b8361126d565b610b6d576040517f08c379a0000000000000000000000000000000000000000000000000000000008152600401610b6490612812565b60405180910390fd5b610b7984848484611867565b50505050565b60606000610bb3610b8f84611568565b604051602001610b9f9190612b23565b6040516020818303038152906040526116c8565b9050600b8054905081610bc6919061290b565b9050600b8181548110610bdc57610bdb61293c565b5b906000526020600020018054610bf19061264b565b80601f0160208091040260200160405190810160405280929190818152602001828054610c1d9061264b565b8015610c6a5780601f10610c3f57610100808354040283529160200191610c6a565b820191906000526020600020905b815481529060010190602001808311610c4d57829003601f168201915b5050505050915050919050565b6060610c8282611161565b6000600660008481526020019081526020016000208054610ca29061264b565b80601f0160208091040260200160405190810160405280929190818152602001828054610cce9061264b565b8015610d1b5780601f10610cf057610100808354040283529160200191610d1b565b820191906000526020600020905b815481529060010190602001808311610cfe57829003601f168201915b505050505090506000610d2c6118c3565b90506000815103610d41578192505050610d84565b600082511115610d76578082604051602001610d5e929190612b45565b60405160208183030381529060405292505050610d84565b610d7f846118da565b925050505b919050565b6064610d956007611153565b10610dd5576040517f08c379a0000000000000000000000000000000000000000000000000000000008152600401610dcc90612bdb565b60405180910390fd5b6000610de16007611153565b90506000610dee826106fd565b90506000610dfb83610a25565b90506000610e0884610b7f565b90506000838383604051602001610e2193929190612bfb565b60405160208183030381529060405290506000600882604051602001610e48929190612d10565b60405160208183030381529060405290506000610e8d83610e6884611942565b604051602001610e79929190612e95565b604051602081830303815290604052611942565b9050600081604051602001610ea29190612f26565b6040516020818303038152906040529050610ef16040518060400160405280601581526020017f0a2d2d2d2d2d2d2d2d2d2d2d2d2d2d2d2d2d2d2d2d0000000000000000000000815250611050565b610efa81611050565b610f386040518060400160405280601581526020017f2d2d2d2d2d2d2d2d2d2d2d2d2d2d2d2d2d2d2d2d0a0000000000000000000000815250611050565b610f423389611aa5565b610f4c8882611ac3565b610f566007611b30565b610f796040518060600160405280602581526020016137f1602591398933611b46565b7febb98688741ffa4c7589bf325de30cf7becb63de567842e1ccdb6cb949fdc82c3389604051610faa929190612f48565b60405180910390a15050505050505050565b6000600560008473ffffffffffffffffffffffffffffffffffffffff1673ffffffffffffffffffffffffffffffffffffffff16815260200190815260200160002060008373ffffffffffffffffffffffffffffffffffffffff1673ffffffffffffffffffffffffffffffffffffffff16815260200190815260200160002060009054906101000a900460ff16905092915050565b6110e68160405160240161106491906121f5565b6040516020818303038152906040527f41304fac000000000000000000000000000000000000000000000000000000007bffffffffffffffffffffffffffffffffffffffffffffffffffffffff19166020820180517bffffffffffffffffffffffffffffffffffffffffffffffffffffffff8381831617835250505050611be5565b50565b60007f01ffc9a7000000000000000000000000000000000000000000000000000000007bffffffffffffffffffffffffffffffffffffffffffffffffffffffff1916827bffffffffffffffffffffffffffffffffffffffffffffffffffffffff1916149050919050565b600081600001549050919050565b61116a81611c0e565b6111a9576040517f08c379a00000000000000000000000000000000000000000000000000000000081526004016111a0906129b7565b60405180910390fd5b50565b600033905090565b816004600083815260200190815260200160002060006101000a81548173ffffffffffffffffffffffffffffffffffffffff021916908373ffffffffffffffffffffffffffffffffffffffff160217905550808273ffffffffffffffffffffffffffffffffffffffff1661122783610815565b73ffffffffffffffffffffffffffffffffffffffff167f8c5be1e5ebec7d5bd14f71427d1e84f3dd0314c0f7b2291e5b200ac8c7c3b92560405160405180910390a45050565b60008061127983610815565b90508073ffffffffffffffffffffffffffffffffffffffff168473ffffffffffffffffffffffffffffffffffffffff1614806112bb57506112ba8185610fbc565b5b806112f957508373ffffffffffffffffffffffffffffffffffffffff166112e184610540565b73ffffffffffffffffffffffffffffffffffffffff16145b91505092915050565b8273ffffffffffffffffffffffffffffffffffffffff1661132282610815565b73ffffffffffffffffffffffffffffffffffffffff1614611378576040517f08c379a000000000000000000000000000000000000000000000000000000000815260040161136f90612fe3565b60405180910390fd5b600073ffffffffffffffffffffffffffffffffffffffff168273ffffffffffffffffffffffffffffffffffffffff16036113e7576040517f08c379a00000000000000000000000000000000000000000000000000000000081526004016113de90613075565b60405180910390fd5b6113f2838383611c7a565b6113fd6000826111b4565b6001600360008573ffffffffffffffffffffffffffffffffffffffff1673ffffffffffffffffffffffffffffffffffffffff168152602001908152602001600020600082825461144d91906130c4565b925050819055506001600360008473ffffffffffffffffffffffffffffffffffffffff1673ffffffffffffffffffffffffffffffffffffffff16815260200190815260200160002060008282546114a491906130f8565b92505081905550816002600083815260200190815260200160002060006101000a81548173ffffffffffffffffffffffffffffffffffffffff021916908373ffffffffffffffffffffffffffffffffffffffff160217905550808273ffffffffffffffffffffffffffffffffffffffff168473ffffffffffffffffffffffffffffffffffffffff167fddf252ad1be2c89b69c2b068fc378daa952ba7f163c4a11628f55a4df523b3ef60405160405180910390a4611563838383611c7f565b505050565b6060600082036115af576040518060400160405280600181526020017f300000000000000000000000000000000000000000000000000000000000000081525090506116c3565b600082905060005b600082146115e15780806115ca9061312c565b915050600a826115da9190613174565b91506115b7565b60008167ffffffffffffffff8111156115fd576115fc61242e565b5b6040519080825280601f01601f19166020018201604052801561162f5781602001600182028036833780820191505090505b5090505b600085146116bc5760018261164891906130c4565b9150600a85611657919061290b565b603061166391906130f8565b60f81b8183815181106116795761167861293c565b5b60200101907effffffffffffffffffffffffffffffffffffffffffffffffffffffffffffff1916908160001a905350600a856116b59190613174565b9450611633565b8093505050505b919050565b6000816040516020016116db91906131a5565b6040516020818303038152906040528051906020012060001c9050919050565b8173ffffffffffffffffffffffffffffffffffffffff168373ffffffffffffffffffffffffffffffffffffffff1603611769576040517f08c379a000000000000000000000000000000000000000000000000000000000815260040161176090613208565b60405180910390fd5b80600560008573ffffffffffffffffffffffffffffffffffffffff1673ffffffffffffffffffffffffffffffffffffffff16815260200190815260200160002060008473ffffffffffffffffffffffffffffffffffffffff1673ffffffffffffffffffffffffffffffffffffffff16815260200190815260200160002060006101000a81548160ff0219169083151502179055508173ffffffffffffffffffffffffffffffffffffffff168373ffffffffffffffffffffffffffffffffffffffff167f17307eab39ab6107e8899845ad3d59bd9653f200f220920489ca2b5937696c318360405161185a9190612116565b60405180910390a3505050565b611872848484611302565b61187e84848484611c84565b6118bd576040517f08c379a00000000000000000000000000000000000000000000000000000000081526004016118b49061329a565b60405180910390fd5b50505050565b606060405180602001604052806000815250905090565b60606118e582611161565b60006118ef6118c3565b9050600081511161190f576040518060200160405280600081525061193a565b8061191984611568565b60405160200161192a929190612b45565b6040516020818303038152906040525b915050919050565b6060600082510361196457604051806020016040528060008152509050611aa0565b6000604051806060016040528060408152602001613816604091399050600060036002855161199391906130f8565b61199d9190613174565b60046119a991906132ba565b67ffffffffffffffff8111156119c2576119c161242e565b5b6040519080825280601f01601f1916602001820160405280156119f45781602001600182028036833780820191505090505b509050600182016020820185865187015b80821015611a60576003820191508151603f8160121c168501518453600184019350603f81600c1c168501518453600184019350603f8160061c168501518453600184019350603f8116850151845360018401935050611a05565b5050600386510660018114611a7c5760028114611a8f57611a97565b603d6001830353603d6002830353611a97565b603d60018303535b50505080925050505b919050565b611abf828260405180602001604052806000815250611e0b565b5050565b611acc82611c0e565b611b0b576040517f08c379a0000000000000000000000000000000000000000000000000000000008152600401611b029061336e565b60405180910390fd5b80600660008481526020019081526020016000209081611b2b9190613525565b505050565b6001816000016000828254019250508190555050565b611be0838383604051602401611b5e939291906135f7565b6040516020818303038152906040527f1c7ec448000000000000000000000000000000000000000000000000000000007bffffffffffffffffffffffffffffffffffffffffffffffffffffffff19166020820180517bffffffffffffffffffffffffffffffffffffffffffffffffffffffff8381831617835250505050611be5565b505050565b60008151905060006a636f6e736f6c652e6c6f679050602083016000808483855afa5050505050565b60008073ffffffffffffffffffffffffffffffffffffffff166002600084815260200190815260200160002060009054906101000a900473ffffffffffffffffffffffffffffffffffffffff1673ffffffffffffffffffffffffffffffffffffffff1614159050919050565b505050565b505050565b6000611ca58473ffffffffffffffffffffffffffffffffffffffff16611e66565b15611dfe578373ffffffffffffffffffffffffffffffffffffffff1663150b7a02611cce6111ac565b8786866040518563ffffffff1660e01b8152600401611cf0949392919061368a565b6020604051808303816000875af1925050508015611d2c57506040513d601f19601f82011682018060405250810190611d2991906136eb565b60015b611dae573d8060008114611d5c576040519150601f19603f3d011682016040523d82523d6000602084013e611d61565b606091505b506000815103611da6576040517f08c379a0000000000000000000000000000000000000000000000000000000008152600401611d9d9061329a565b60405180910390fd5b805181602001fd5b63150b7a0260e01b7bffffffffffffffffffffffffffffffffffffffffffffffffffffffff1916817bffffffffffffffffffffffffffffffffffffffffffffffffffffffff191614915050611e03565b600190505b949350505050565b611e158383611e89565b611e226000848484611c84565b611e61576040517f08c379a0000000000000000000000000000000000000000000000000000000008152600401611e589061329a565b60405180910390fd5b505050565b6000808273ffffffffffffffffffffffffffffffffffffffff163b119050919050565b600073ffffffffffffffffffffffffffffffffffffffff168273ffffffffffffffffffffffffffffffffffffffff1603611ef8576040517f08c379a0000000000000000000000000000000000000000000000000000000008152600401611eef90613764565b60405180910390fd5b611f0181611c0e565b15611f41576040517f08c379a0000000000000000000000000000000000000000000000000000000008152600401611f38906137d0565b60405180910390fd5b611f4d60008383611c7a565b6001600360008473ffffffffffffffffffffffffffffffffffffffff1673ffffffffffffffffffffffffffffffffffffffff1681526020019081526020016000206000828254611f9d91906130f8565b92505081905550816002600083815260200190815260200160002060006101000a81548173ffffffffffffffffffffffffffffffffffffffff021916908373ffffffffffffffffffffffffffffffffffffffff160217905550808273ffffffffffffffffffffffffffffffffffffffff16600073ffffffffffffffffffffffffffffffffffffffff167fddf252ad1be2c89b69c2b068fc378daa952ba7f163c4a11628f55a4df523b3ef60405160405180910390a461205e60008383611c7f565b5050565b6000604051905090565b600080fd5b600080fd5b60007fffffffff0000000000000000000000000000000000000000000000000000000082169050919050565b6120ab81612076565b81146120b657600080fd5b50565b6000813590506120c8816120a2565b92915050565b6000602082840312156120e4576120e361206c565b5b60006120f2848285016120b9565b91505092915050565b60008115159050919050565b612110816120fb565b82525050565b600060208201905061212b6000830184612107565b92915050565b6000819050919050565b61214481612131565b82525050565b600060208201905061215f600083018461213b565b92915050565b600081519050919050565b600082825260208201905092915050565b60005b8381101561219f578082015181840152602081019050612184565b60008484015250505050565b6000601f19601f8301169050919050565b60006121c782612165565b6121d18185612170565b93506121e1818560208601612181565b6121ea816121ab565b840191505092915050565b6000602082019050818103600083015261220f81846121bc565b905092915050565b61222081612131565b811461222b57600080fd5b50565b60008135905061223d81612217565b92915050565b6000602082840312156122595761225861206c565b5b60006122678482850161222e565b91505092915050565b600073ffffffffffffffffffffffffffffffffffffffff82169050919050565b600061229b82612270565b9050919050565b6122ab81612290565b82525050565b60006020820190506122c660008301846122a2565b92915050565b6122d581612290565b81146122e057600080fd5b50565b6000813590506122f2816122cc565b92915050565b6000806040838503121561230f5761230e61206c565b5b600061231d858286016122e3565b925050602061232e8582860161222e565b9150509250929050565b6000806000606084860312156123515761235061206c565b5b600061235f868287016122e3565b9350506020612370868287016122e3565b92505060406123818682870161222e565b9150509250925092565b6000602082840312156123a1576123a061206c565b5b60006123af848285016122e3565b91505092915050565b6123c1816120fb565b81146123cc57600080fd5b50565b6000813590506123de816123b8565b92915050565b600080604083850312156123fb576123fa61206c565b5b6000612409858286016122e3565b925050602061241a858286016123cf565b9150509250929050565b600080fd5b600080fd5b7f4e487b7100000000000000000000000000000000000000000000000000000000600052604160045260246000fd5b612466826121ab565b810181811067ffffffffffffffff821117156124855761248461242e565b5b80604052505050565b6000612498612062565b90506124a4828261245d565b919050565b600067ffffffffffffffff8211156124c4576124c361242e565b5b6124cd826121ab565b9050602081019050919050565b82818337600083830152505050565b60006124fc6124f7846124a9565b61248e565b90508281526020810184848401111561251857612517612429565b5b6125238482856124da565b509392505050565b600082601f8301126125405761253f612424565b5b81356125508482602086016124e9565b91505092915050565b600080600080608085870312156125735761257261206c565b5b6000612581878288016122e3565b9450506020612592878288016122e3565b93505060406125a38782880161222e565b925050606085013567ffffffffffffffff8111156125c4576125c3612071565b5b6125d08782880161252b565b91505092959194509250565b600080604083850312156125f3576125f261206c565b5b6000612601858286016122e3565b9250506020612612858286016122e3565b9150509250929050565b7f4e487b7100000000000000000000000000000000000000000000000000000000600052602260045260246000fd5b6000600282049050600182168061266357607f821691505b6020821081036126765761267561261c565b5b50919050565b7f4552433732313a20617070726f76616c20746f2063757272656e74206f776e6560008201527f7200000000000000000000000000000000000000000000000000000000000000602082015250565b60006126d8602183612170565b91506126e38261267c565b604082019050919050565b60006020820190508181036000830152612707816126cb565b9050919050565b7f4552433732313a20617070726f76652063616c6c6572206973206e6f7420746f60008201527f6b656e206f776e6572206e6f7220617070726f76656420666f7220616c6c0000602082015250565b600061276a603e83612170565b91506127758261270e565b604082019050919050565b600060208201905081810360008301526127998161275d565b9050919050565b7f4552433732313a2063616c6c6572206973206e6f7420746f6b656e206f776e6560008201527f72206e6f7220617070726f766564000000000000000000000000000000000000602082015250565b60006127fc602e83612170565b9150612807826127a0565b604082019050919050565b6000602082019050818103600083015261282b816127ef565b9050919050565b600081905092915050565b7f46495253545f574f524400000000000000000000000000000000000000000000600082015250565b6000612873600a83612832565b915061287e8261283d565b600a82019050919050565b600061289482612165565b61289e8185612832565b93506128ae818560208601612181565b80840191505092915050565b60006128c582612866565b91506128d18284612889565b915081905092915050565b7f4e487b7100000000000000000000000000000000000000000000000000000000600052601260045260246000fd5b600061291682612131565b915061292183612131565b925082612931576129306128dc565b5b828206905092915050565b7f4e487b7100000000000000000000000000000000000000000000000000000000600052603260045260246000fd5b7f4552433732313a20696e76616c696420746f6b656e2049440000000000000000600082015250565b60006129a1601883612170565b91506129ac8261296b565b602082019050919050565b600060208201905081810360008301526129d081612994565b9050919050565b7f4552433732313a2061646472657373207a65726f206973206e6f74206120766160008201527f6c6964206f776e65720000000000000000000000000000000000000000000000602082015250565b6000612a33602983612170565b9150612a3e826129d7565b604082019050919050565b60006020820190508181036000830152612a6281612a26565b9050919050565b7f5345434f4e445f574f5244000000000000000000000000000000000000000000600082015250565b6000612a9f600b83612832565b9150612aaa82612a69565b600b82019050919050565b6000612ac082612a92565b9150612acc8284612889565b915081905092915050565b7f54484952445f574f524400000000000000000000000000000000000000000000600082015250565b6000612b0d600a83612832565b9150612b1882612ad7565b600a82019050919050565b6000612b2e82612b00565b9150612b3a8284612889565b915081905092915050565b6000612b518285612889565b9150612b5d8284612889565b91508190509392505050565b7f546865206d6178206e756d626572206f66204e4654732068617665206265656e60008201527f206d696e74656400000000000000000000000000000000000000000000000000602082015250565b6000612bc5602783612170565b9150612bd082612b69565b604082019050919050565b60006020820190508181036000830152612bf481612bb8565b9050919050565b6000612c078286612889565b9150612c138285612889565b9150612c1f8284612889565b9150819050949350505050565b60008190508160005260206000209050919050565b60008154612c4e8161264b565b612c588186612832565b94506001821660008114612c735760018114612c8857612cbb565b60ff1983168652811515820286019350612cbb565b612c9185612c2c565b60005b83811015612cb357815481890152600182019150602081019050612c94565b838801955050505b50505092915050565b7f3c2f746578743e3c2f7376673e00000000000000000000000000000000000000600082015250565b6000612cfa600d83612832565b9150612d0582612cc4565b600d82019050919050565b6000612d1c8285612c41565b9150612d288284612889565b9150612d3382612ced565b91508190509392505050565b7f7b226e616d65223a202200000000000000000000000000000000000000000000600082015250565b6000612d75600a83612832565b9150612d8082612d3f565b600a82019050919050565b7f222c20226465736372697074696f6e223a20224120686967686c79206163636c60008201527f61696d656420636f6c6c656374696f6e206f66206b6f6e6d6172752e222c202260208201527f696d616765223a2022646174613a696d6167652f7376672b786d6c3b6261736560408201527f36342c0000000000000000000000000000000000000000000000000000000000606082015250565b6000612e33606383612832565b9150612e3e82612d8b565b606382019050919050565b7f227d000000000000000000000000000000000000000000000000000000000000600082015250565b6000612e7f600283612832565b9150612e8a82612e49565b600282019050919050565b6000612ea082612d68565b9150612eac8285612889565b9150612eb782612e26565b9150612ec38284612889565b9150612ece82612e72565b91508190509392505050565b7f646174613a6170706c69636174696f6e2f6a736f6e3b6261736536342c000000600082015250565b6000612f10601d83612832565b9150612f1b82612eda565b601d82019050919050565b6000612f3182612f03565b9150612f3d8284612889565b915081905092915050565b6000604082019050612f5d60008301856122a2565b612f6a602083018461213b565b9392505050565b7f4552433732313a207472616e736665722066726f6d20696e636f72726563742060008201527f6f776e6572000000000000000000000000000000000000000000000000000000602082015250565b6000612fcd602583612170565b9150612fd882612f71565b604082019050919050565b60006020820190508181036000830152612ffc81612fc0565b9050919050565b7f4552433732313a207472616e7366657220746f20746865207a65726f2061646460008201527f7265737300000000000000000000000000000000000000000000000000000000602082015250565b600061305f602483612170565b915061306a82613003565b604082019050919050565b6000602082019050818103600083015261308e81613052565b9050919050565b7f4e487b7100000000000000000000000000000000000000000000000000000000600052601160045260246000fd5b60006130cf82612131565b91506130da83612131565b92508282039050818111156130f2576130f1613095565b5b92915050565b600061310382612131565b915061310e83612131565b925082820190508082111561312657613125613095565b5b92915050565b600061313782612131565b91507fffffffffffffffffffffffffffffffffffffffffffffffffffffffffffffffff820361316957613168613095565b5b600182019050919050565b600061317f82612131565b915061318a83612131565b92508261319a576131996128dc565b5b828204905092915050565b60006131b18284612889565b915081905092915050565b7f4552433732313a20617070726f766520746f2063616c6c657200000000000000600082015250565b60006131f2601983612170565b91506131fd826131bc565b602082019050919050565b60006020820190508181036000830152613221816131e5565b9050919050565b7f4552433732313a207472616e7366657220746f206e6f6e20455243373231526560008201527f63656976657220696d706c656d656e7465720000000000000000000000000000602082015250565b6000613284603283612170565b915061328f82613228565b604082019050919050565b600060208201905081810360008301526132b381613277565b9050919050565b60006132c582612131565b91506132d083612131565b92508282026132de81612131565b915082820484148315176132f5576132f4613095565b5b5092915050565b7f45524337323155524953746f726167653a2055524920736574206f66206e6f6e60008201527f6578697374656e7420746f6b656e000000000000000000000000000000000000602082015250565b6000613358602e83612170565b9150613363826132fc565b604082019050919050565b600060208201905081810360008301526133878161334b565b9050919050565b60006020601f8301049050919050565b600082821b905092915050565b6000600883026133db7fffffffffffffffffffffffffffffffffffffffffffffffffffffffffffffffff8261339e565b6133e5868361339e565b95508019841693508086168417925050509392505050565b6000819050919050565b600061342261341d61341884612131565b6133fd565b612131565b9050919050565b6000819050919050565b61343c83613407565b61345061344882613429565b8484546133ab565b825550505050565b600090565b613465613458565b613470818484613433565b505050565b5b818110156134945761348960008261345d565b600181019050613476565b5050565b601f8211156134d9576134aa81612c2c565b6134b38461338e565b810160208510156134c2578190505b6134d66134ce8561338e565b830182613475565b50505b505050565b600082821c905092915050565b60006134fc600019846008026134de565b1980831691505092915050565b600061351583836134eb565b9150826002028217905092915050565b61352e82612165565b67ffffffffffffffff8111156135475761354661242e565b5b613551825461264b565b61355c828285613498565b600060209050601f83116001811461358f576000841561357d578287015190505b6135878582613509565b8655506135ef565b601f19841661359d86612c2c565b60005b828110156135c5578489015182556001820191506020850194506020810190506135a0565b868310156135e257848901516135de601f8916826134eb565b8355505b6001600288020188555050505b505050505050565b6000606082019050818103600083015261361181866121bc565b9050613620602083018561213b565b61362d60408301846122a2565b949350505050565b600081519050919050565b600082825260208201905092915050565b600061365c82613635565b6136668185613640565b9350613676818560208601612181565b61367f816121ab565b840191505092915050565b600060808201905061369f60008301876122a2565b6136ac60208301866122a2565b6136b9604083018561213b565b81810360608301526136cb8184613651565b905095945050505050565b6000815190506136e5816120a2565b92915050565b6000602082840312156137015761370061206c565b5b600061370f848285016136d6565b91505092915050565b7f4552433732313a206d696e7420746f20746865207a65726f2061646472657373600082015250565b600061374e602083612170565b915061375982613718565b602082019050919050565b6000602082019050818103600083015261377d81613741565b9050919050565b7f4552433732313a20746f6b656e20616c7265616479206d696e74656400000000600082015250565b60006137ba601c83612170565b91506137c582613784565b602082019050919050565b600060208201905081810360008301526137e9816137ad565b905091905056fe416e204e465420772f20494420257320686173206265656e206d696e74656420746f2025734142434445464748494a4b4c4d4e4f505152535455565758595a6162636465666768696a6b6c6d6e6f707172737475767778797a303132333435363738392b2fa26469706673582212205da2994ca87a893b4ea48b76e7da20c5e3606c6c8df909badba7ceccb20de58e64736f6c634300081100333c73766720786d6c6e733d27687474703a2f2f7777772e77332e6f72672f323030302f73766727207072657365727665417370656374526174696f3d27784d696e594d696e206d656574272076696577426f783d273020302033353020333530273e3c7374796c653e2e62617365207b2066696c6c3a2077686974653b20666f6e742d66616d696c793a2073657269663b20666f6e742d73697a653a20323470783b207d3c2f7374796c653e3c726563742077696474683d273130302527206865696768743d2731303025272066696c6c3d27626c61636b27202f3e3c7465787420783d273530252720793d273530252720636c6173733d27626173652720646f6d696e616e742d626173656c696e653d276d6964646c652720746578742d616e63686f723d276d6964646c65273e54686973206973204b6f6e6d6172754d6167696356656769204e465420636f6e74726163742e20596179797921",
  "linkReferences": {},
  "deployedLinkReferences": {}
}